:020000040000FA
:100000000C9463000C948B000C948B000C948B006C
:100010000C948B000C948B000C948B000C940808AF
:100020000C948B000C948B000C948B000C940609A0
:100030000C948B000C948B000C948B000C948B0014
:100040000C94BC080C948B000C948A080C946408E3
:100050000C948B000C948B000C948B000C948B00F4
:100060000C94C2090C948B000000000024002700AF
:100070002A0000000008000201000003040700003D
:1000800000000000000000000000250028002B00F8
:1000900002000000002300260029000404040404D8
:1000A0000404040202020202020303030303030125
:1000B00002040810204080010204081020010204FC
:1000C00008102000260B11241FBECFEFD8E0DEBFA2
:1000D000CDBF12E0A0E0B1E0ECECF8E202C0059088
:1000E0000D92A637B107D9F724E0A6E7B2E001C028
:1000F0001D92A433B207E1F710E0C3E6D0E004C0DC
:100100002197FE010E945714C236D107C9F70E94F9
:10011000AC0B0C9464140C9400008F929F92AF92DD
:10012000BF92FF920F931F93CF93DF93F09024041D
:100130002BE02F1508F44CC02091260408E512E0AE
:10014000021B110927FD1395000F111F000F111F2E
:1001500020912504C8E8D0E0C21BD10927FDD39522
:10016000CC0FDD1FCC0FDD1F4E010D2E000CAA0899
:10017000BB089801012E000C440B550B28193909B6
:100180004A095B09DC010E94D61124EB30E040E013
:1001900050E00E94AC11820E931EA41EB51E8C1658
:1001A0009D062CF0E801801691060CF4E4012297DC
:1001B000CC0FDD1F2FB7F8948F2D90E0FC01EE0FD0
:1001C000FF1FE80FF91FE150FC4FD283C1832FBFFF
:1001D000DF91CF911F910F91FF90BF90AF909F90B3
:1001E0008F9008958091010120E4829FC001112425
:1001F000876080937C0080917A00806480937A008D
:1002000080917A0086FDFCCF8091780090917900F2
:10021000089508950895AF92BF92CF92DF92EF9222
:10022000FF920F931F93CF93DF936C017B018B01A0
:10023000040F151FEB015E01AE18BF08C017D107F0
:1002400059F06991D601ED91FC910190F081E02D7A
:10025000C6010995892B79F7C501DF91CF911F91CF
:100260000F91FF90EF90DF90CF90BF90AF900895E7
:10027000FC01538D448D252F30E0842F90E0821BAC
:10028000930B541710F0CF96089501970895FC0131
:10029000918D828D981761F0A28DAE0FBF2FB11D89
:1002A0005D968C91928D9F5F9F73928F90E00895E1
:1002B0008FEF9FEF0895FC01918D828D981731F09B
:1002C000828DE80FF11D858D90E008958FEF9FEFEF
:1002D0000895FC01918D228D892F90E0805C9F4FC5
:1002E000821B91098F739927089586E593E00E94F8
:1002F000690121E0892B09F420E0822F089580E034
:1003000090E0892B29F00E94750181110C94000066
:100310000895FC01A48DA80FB92FB11DA35ABF4F9A
:100320002C91848D90E001968F739927848FA689F4
:10033000B7892C93A089B1898C91837080648C9348
:10034000938D848D981306C00288F389E02D8081F7
:100350008F7D80830895EF92FF920F931F93CF9329
:10036000DF93EC0181E0888F9B8D8C8D98131AC0F0
:10037000E889F989808185FF15C09FB7F894EE89D7
:10038000FF896083E889F989808183708064808334
:100390009FBF81E090E0DF91CF911F910F91FF907F
:1003A000EF900895F62E0B8D10E00F5F1F4F0F7327
:1003B0001127E02E8C8D8E110CC00FB607FCFACFE2
:1003C000E889F989808185FFF5CFCE010E948901F6
:1003D000F1CFEB8DEC0FFD2FF11DE35AFF4FF082B3
:1003E0009FB7F8940B8FEA89FB8980818062CFCF19
:1003F000CF93DF93EC01888D8823B9F0AA89BB895C
:10040000E889F9898C9185FD03C0808186FD0DC046
:100410000FB607FCF7CF8C9185FFF2CF808185FF67
:10042000EDCFCE010E948901E9CFDF91CF910895F0
:10043000833081F028F4813099F08230A9F008955A
:100440008730A9F08830C9F08430B1F48091800001
:100450008F7D03C0809180008F7780938000089506
:1004600084B58F7784BD089584B58F7DFBCF80914F
:10047000B0008F778093B00008958091B0008F7D99
:10048000F9CFCF93DF93282F30E0F901EE58FF4FDB
:100490008491F901E155FF4FD491F901E556FF4FE1
:1004A000C491CC23A1F081110E941802EC2FF0E03E
:1004B000EE0FFF1FEF56FF4FA591B491EC91ED2386
:1004C00081E090E009F480E0DF91CF91089580E031
:1004D00090E0FACF1F93CF93DF93282F30E0F901FC
:1004E000EE58FF4F8491F901E155FF4FD491F90186
:1004F000E556FF4FC491CC23A9F0162F81110E941D
:100500001802EC2FF0E0EE0FFF1FEA57FF4FA59106
:10051000B4918FB7F894EC91111108C0D095DE23F7
:10052000DC938FBFDF91CF911F910895DE2BF8CF21
:100530009091000189130BC0E0E9F0E0E4919FEF96
:1005400090930001E13049F028F0E23061F060E082
:100550000C946A0210926E00FACF90916F009D7F0A
:1005600090936F00F4CF909170009D7F90937000F6
:1005700091E09093B0009091B100987F9460909337
:10058000B1001092B300E3CFCF93DF9390E0FC0172
:10059000E155FF4F249185569F4FFC01849188239C
:1005A000C9F090E0880F991FFC01E859FF4FA59111
:1005B000B491FC01EA57FF4FC591D49161110DC070
:1005C0009FB7F8948C91209582238C93888128235F
:1005D00028839FBFDF91CF910895623051F49FB778
:1005E000F8943C91822F809583238C93E8812E2B65
:1005F000EFCF8FB7F894EC912E2B2C938FBFEACFCF
:100600003FB7F89480912E0390912F03A09130036F
:10061000B091310326B5A89B05C02F3F19F0019674
:10062000A11DB11D3FBFBA2FA92F982F8827BC014C
:10063000CD01620F711D811D911D42E0660F771F74
:10064000881F991F4A95D1F708958F929F92AF9274
:10065000BF92CF92DF92EF92FF924B015C010E941A
:1006600000036B017C010E9400036C197D098E0957
:100670009F09683E734081059105A8F321E0821A25
:100680009108A108B10888EEC80E83E0D81EE11CCD
:10069000F11C81149104A104B10429F7FF90EF909B
:1006A000DF90CF90BF90AF909F908F900895089566
:1006B0002091B702260F3327331F21323105ECF486
:1006C00020910003FC0190E080E0243069F082E09A
:1006D0000895A091B7022191AC0149565D4FA40F36
:1006E000B52FB11D2C930196861798F38091B70210
:1006F000680F6093B70280E0089581E0089510923A
:10070000000381E08093FF021092DA0261E082E14F
:100710000E946A0261E083E10E946A02E9EBF0E074
:1007200080818E7F808380818D7F808388E4809329
:10073000B80085E48093BC000895CF93DF9391E0E7
:10074000909396028823B9F0C091B800D091BA0076
:100750008091BC008A7B8093BC0060E082E10E94B3
:100760006A0260E083E10E946A020E947F03D093E4
:10077000BA00C093B800DF91CF9108950895E09139
:10078000390380913803E81730F4F0E0EA58FD4F60
:10079000808190E008958FEF9FEF08959091390345
:1007A000809138032FEF3FEF981748F4E92FF0E0DE
:1007B000EA58FD4F208130E09F5F90933903C901D3
:1007C00008958091380390913903891B990B0895FE
:1007D000CF92DF92EF92FF920F931F93CF93DF930D
:1007E0007C01CB018A0120910603222389F0EB01D1
:1007F0006B01C40ED51ECC15DD0569F06991D701DA
:10080000ED91FC910190F081E02DC7010995F3CFA6
:10081000642F0E945803C801DF91CF911F910F915F
:10082000FF90EF90DF90CF900895CF93DF931F92CA
:10083000CDB7DEB76983209106032223F9F020911A
:100840003603203258F021E030E0FC01338322836C
:1008500090E080E00F90DF91CF9108958091370371
:10086000E82FF0E0E95FFC4F998190838F5F8093E0
:1008700037038093360381E090E0ECCF61E0CE0156
:1008800001960E945803F7CFCF92DF92EF92FF922A
:100890000F931F93CF93DF93FC01C48121E020933A
:1008A0000603C09327031092370310923603848502
:1008B000682B83EF93E00E941504D0913603D13268
:1008C00008F092C00E9400036B017C01809100033C
:1008D000811165C082E08093000381E08093FF0274
:1008E0008FEF8093FE021092FD02D093FC02A7E0EE
:1008F000B3E0ECEDF2E080E0D81385C01092DB02AB
:100900008091DB02CC0FC82BC093DB028091DA020E
:10091000813009F07CC01092DA020E9400036B0162
:100920007C018091DB028093BB0080910203909157
:100930000303A0910403B0910503892B8A2B8B2B11
:1009400099F00E940003009102031091030320918B
:100950000403309105036C197D098E099F09061760
:10096000170728073907E0F18091BC0083FDD9CF34
:1009700085EC8093BC000E9400036B017C01809198
:100980000003823009F445C08091FE028F3F61F17F
:100990008091FE02803241F18091FE0225C080915B
:1009A000020390910303A0910403B0910503892BE6
:1009B0008A2B8B2B09F48ACF0E940003009102033B
:1009C0001091030320910403309105036C197D09F4
:1009D0008E099F09061717072807390708F076CFF1
:1009E000809101030E949D031092370310923603F9
:1009F00010920603DF91CF911F910F91FF90EF901E
:100A0000DF90CF9008959D9191938F5F75CF85EE84
:100A1000B0CF8091020390910303A0910403B091A1
:100A20000503892B8A2B8B2B09F4A9CF0E94000385
:100A300000910203109103032091040330910503F8
:100A40006C197D098E099F090617170728073907B2
:100A500008F095CFC5CF90E080E008951F93CF9325
:100A6000DF93FC01892BD1F461157105E1F0FB01E5
:100A7000C5E0D6E017E088E03197E930F10508F0ED
:100A80005FC0EB5BFA4F0C9457146605740579054B
:100A90007B05840586058B058D059A05C0E0D2E0AF
:100AA00013E084E0E9CF60E084E00E946A0260E045
:100AB00083E00E946A0260E082E00E946A0260E0D5
:100AC00080E0DF91CF911F910C946A0261E00E9457
:100AD0006A0260E0812F0E946A0260E08D2F0E940E
:100AE0006A0260E08C2FEDCF60E00E946A0261E054
:100AF000F1CF61E0FACF60E00E946A0260E0812FEE
:100B00000E946A0261E0EACF61E0F6CF60E00E94F5
:100B10006A0261E0F4CF61E0FACF60E00E946A020D
:100B200060E083E00E946A0260E08D2F0E946A020A
:100B300061E0D8CF61E00E946A0260E0812FF2CFCD
:100B4000DF91CF911F9108950F931F93CF938C0145
:100B5000C62F0E9444046C2F6460C8010E944404A4
:100B60006C2F6B7FC8010E94440483EC90E00197D6
:100B7000F1F7CF911F910F9108950F931F93CF938A
:100B8000DF938C01D62FC42F607F642B0E94A405B5
:100B900080E1D89FB00111246C2BC801DF91CF9167
:100BA0001F910F910C94A405CF93DF93CDB7DEB7BF
:100BB00028970FB6F894DEBF0FBECDBF98E0E2E0F5
:100BC000F1E0DE01119601900D929A95E1F7909176
:100BD0002F04961710F46FEF690F262F30E0220FC5
:100BE000331F41E050E04C0F5D1F240F351FF9010A
:100BF0006081680F606840E087E294E028960FB655
:100C0000F894DEBF0FBECDBFDF91CF910C94BD0530
:100C100040E061E087E294E00E94BD058BE39FE144
:100C20000197F1F780913004882321F060E080E0A3
:100C30000C94D405089541E00E94BD0581E090E048
:100C400008950F931F9390E0FC01E155FF4F6491CD
:100C5000FC01E556FF4FE491F0E0EE0FFF1FEF5669
:100C6000FF4F8591949100E412E42FE030E0462F8D
:100C70000E94E10A611571058105910529F06F5FF8
:100C80007F4F8F4F9F4F9F701F910F910895FB01D2
:100C900001900020E9F73197AF01461B570BDC01AB
:100CA000ED91FC910280F381E02D09948F929F9247
:100CB000AF92BF92EF92FF920F931F93CF93DF9368
:100CC000CDB7DEB7A1970FB6F894DEBF0FBECDBF8C
:100CD0007C01FA01CB0119A2223008F42AE08E012E
:100CE0000F5D1F4F822E912CB12CA12CBF01A501AD
:100CF00094010E94DE11F901CA016A300CF5605DB1
:100D0000D8016E938D01232B242B252B79F790E0AE
:100D100080E0109721F0BD01C7010E944706A1960F
:100D20000FB6F894DEBF0FBECDBFDF91CF911F91FC
:100D30000F91FF90EF90BF90AF909F908F9008958C
:100D4000695CDECFCF92DF92EF92FF92CF93DF9379
:100D5000AB01BC0177FF1DC06A017C016DE286E535
:100D600093E00E94AB01EC0144275527BA014C19CE
:100D70005D096E097F092AE086E593E00E94560628
:100D80008C0F9D1FDF91CF91FF90EF90DF90CF9060
:100D900008952AE086E593E0DF91CF91FF90EF90F0
:100DA000DF90CF900C9456064F925F926F927F9295
:100DB0008F929F92AF92BF92CF92DF92EF92FF926B
:100DC0000F931F93CF936B017C01742EAC019B0199
:100DD0000E9446146AE371E0811126C04601570162
:100DE000E894B7F82FEF3FEF4FE75FE7C501B40195
:100DF0000E94461481110CC02FEF3FEF4FE75FE7D1
:100E0000C501B4010E947C126EE371E0181664F013
:100E10002FEF3FEF4FE75FE4C701B6010E94D41305
:100E20001816ACF462E471E087E294E0CF911F9170
:100E30000F91FF90EF90DF90CF90BF90AF909F9079
:100E40008F907F906F905F904F900C9447062FEF9C
:100E50003FEF4FE75FECC701B6010E947C1287FDB0
:100E6000E1CF20E030E0A901C701B6010E947C1269
:100E700010E000E087FF0CC041E06DE287E294E003
:100E80000E94BD05F7FAF094F7F8F09401E010E045
:100E9000C0E060E070E080E09FE37C1641F020E07D
:100EA00030E040E251E40E948112CF5FF6CFA7010B
:100EB00096010E9410124B015C010E94F3122B015B
:100EC0003C012AE0BC01A20187E294E00E945606A0
:100ED000080F191FCC23D9F1C301B2010E942213BC
:100EE0009B01AC01C501B4010E940F124B015C01D2
:100EF00041E06EE287E294E00E94BD050F5F1F4F64
:100F0000C15028F120E030E040E251E4C501B401D5
:100F10000E94D9132B013C010E94F3124B01B12C0A
:100F2000A12C2AE0B501A40187E294E00E945606B4
:100F3000080F191FC501B4010E9422139B01AC01C7
:100F4000C301B2010E940F124B015C01D9CFC8014D
:100F5000CF911F910F91FF90EF90DF90CF90BF90B6
:100F6000AF909F908F907F906F905F904F9008957B
:100F700066E471E00C9447060F931F93CF93DF93C1
:100F8000EC010E9447068C01CE010E94B807800F39
:100F9000911FDF91CF911F910F9108950C944706F7
:100FA00085ED8093BC008091020390910303A09192
:100FB0000403B09105030796A11DB11D23E0B6956A
:100FC000A795979587952A95D1F72091BC0024FD88
:100FD00003C010920003089540910203509103034F
:100FE0006091040370910503452B462B472B69F351
:100FF0000097A105B10541F025E32A95F1F700001E
:101000000197A109B109E1CF809101030C949D03DF
:101010001F920F920FB60F9211242F933F934F936D
:101020005F936F937F938F939F93AF93BF93EF9350
:10103000FF9380913F0390914003A0914103B091B1
:101040004203892B8A2B8B2BD1F190913A03E091AB
:101050003B03F0913C0380818927808380913F038B
:1010600090914003A0914103B091420318161906D4
:101070001A061B069CF480913F0390914003A091B7
:101080004103B09142030197A109B10980933F0345
:1010900090934003A0934103B0934203FF91EF91DB
:1010A000BF91AF919F918F917F916F915F914F9180
:1010B0003F912F910F900FBE0F901F901895809128
:1010C00000010E949802EACF1F920F920FB60F9272
:1010D00011242F933F934F935F936F937F938F933D
:1010E0009F93AF93BF93EF93FF9386E593E00E94A6
:1010F0008901FF91EF91BF91AF919F918F917F9166
:101100006F915F914F913F912F910F900FBE0F9074
:101110001F9018951F920F920FB60F9211242F93C4
:101120008F939F93EF93FF93E0916603F091670392
:101130008081E0916C03F0916D0382FD1BC0908172
:1011400080916F038F5F8F7320917003821741F03E
:10115000E0916F03F0E0EA5AFC4F958F80936F03A4
:10116000FF91EF919F918F912F910F900FBE0F9054
:101170001F9018958081F4CF1F920F920FB60F9297
:1011800011242F933F938F939F93AF93BF9380919D
:101190002A0390912B03A0912C03B0912D03309141
:1011A000290323E0230F2D3758F50196A11DB11D0A
:1011B0002093290380932A0390932B03A0932C035D
:1011C000B0932D0380912E0390912F03A0913003B3
:1011D000B09131030196A11DB11D80932E03909310
:1011E0002F03A0933003B0933103BF91AF919F9130
:1011F0008F913F912F910F900FBE0F901F901895D8
:1012000026E8230F0296A11DB11DD2CF1F920F9287
:101210000FB60F9211242F933F934F935F936F93C9
:101220007F938F939F93AF93BF93CF93DF93EF936E
:10123000FF9380912803C0912304D0E087FF24C04E
:101240001092850010928400809128038F5F809314
:10125000280380912803082E000C990B8C179D07FA
:1012600024F4809128038C30C4F180918400909103
:101270008500049680349C4908F47AC080918400EB
:1012800090918500049676C080912803082E000C6A
:10129000990B8C179D07C4F6E09128038E2FEE0F53
:1012A000990BFC01EE0FFF1FE80FF91FE150FC4FF7
:1012B000808186FFC9CFE09128038E2FEE0F990B16
:1012C000FC01EE0FFF1FE80FF91FE150FC4F80817A
:1012D00060E08F730E946A02B7CF20918400309142
:1012E0008500E09128038E2FEE0F990BFC01EE0F85
:1012F000FF1FE80FF91FE150FC4F81819281820F9F
:10130000931F9093890080938800E09128038E2F8B
:10131000EE0F990BFC01EE0FFF1FE80FF91FE150D4
:10132000FC4F808186FF11C0E09128038E2FEE0FC5
:10133000990BFC01EE0FFF1FE80FF91FE150FC4F66
:10134000808161E08F730E946A02FF91EF91DF91CB
:10135000CF91BF91AF919F918F917F916F915F914D
:101360004F913F912F910F900FBE0F901F901895A6
:1013700080E49CE990938900809388008FEF8093AC
:101380002803E3CF1F920F920FB60F9211242F93D1
:101390003F934F935F936F937F938F939F93AF93FD
:1013A000BF93EF93FF938091B900887F803609F453
:1013B0004AC0F0F5883209F4A7C018F5803109F465
:1013C0009BC0B8F4882309F4F9C0883009F494C0AC
:1013D000FF91EF91BF91AF919F918F917F916F910D
:1013E0005F914F913F912F910F900FBE0F901F90E3
:1013F0001895883109F488C0803251F78093FE0235
:1014000014C0803409F49DC040F48033B9F38833AC
:10141000F9F68093FE0285ECB0C0803509F485C0F2
:10142000883509F496C0883499F60E94D007D0CF49
:10143000883909F48CC038F5883729F050F488369B
:1014400011F0803729F683E0809300031092D902CF
:1014500057C0883809F47BC0803919F0803809F00A
:10146000B7CF8091D902803208F071C0E091D902E3
:1014700081E08E0F8093D9028091BB00F0E0E754A9
:10148000FD4F80833DC0803B39F0E0F4803A09F4A1
:1014900079C0883A09F09CCF84E0809300031092D1
:1014A000B8021092B702E0913403F0913503099528
:1014B0008091B70281110FC081E08093B702109232
:1014C000970209C0803C09F4A6CF883C09F4A3CF59
:1014D000883B09F07DCFE091B80281E08E0F8093C8
:1014E000B802F0E0E956FD4F80818093BB009091F7
:1014F000B8028091B70229C08091DB028093BB00C3
:1015000085EC8093BC0064CF9091FD028091FC0239
:10151000981758F5E091FD0281E08E0F8093FD024F
:10152000F0E0E452FD4F8081E9CFE091FD0281E0DF
:101530008E0F8093FD028091BB00F0E0E452FD4FDE
:1015400080839091FD028091FC029817C8F285E893
:10155000D8CFE091FD0281E08E0F8093FD02809153
:10156000BB00F0E0E452FD4F80838091FF028111C7
:101570005CCF81E08093DA0284EA8093BC00109211
:10158000000326CF85EC8093BC001092000380916D
:10159000D902803230F4E091D902F0E0E754FD4FF7
:1015A00010826091D90270E0E0913203F091330330
:1015B00089EB92E009951092D9020ACF1092FE02AF
:1015C00034CFCF92DF92EF92FF920F931F93E82FC9
:1015D000F92F05C0015011092109310961F19081EC
:1015E00096239417B9F305C0015011092109310957
:1015F00011F1908196239413F7CFC12CD12CE12CBB
:10160000F12C0AC08FEFC81AD80AE80AF80A0C159C
:101610001D052E053F0579F080818623841791F3FF
:101620006C2D7D2D8E2D9F2D1F910F91FF90EF9092
:10163000DF90CF90089560E070E080E090E01F912F
:101640000F91FF90EF90DF90CF9008951092590383
:101650001092580388EE93E0A0E0B0E080935A0324
:1016600090935B03A0935C03B0935D032EE031E0A5
:10167000309357032093560325EC30E030936303F7
:101680002093620324EC30E03093650320936403DD
:1016900020EC30E0309367032093660321EC30E0C8
:1016A000309369032093680322EC30E030936B039E
:1016B00020936A0326EC30E030936D0320936C0393
:1016C00010926F03109270031092710310927203C4
:1016D0001092F6031092F5038093F7039093F803AA
:1016E000A093F903B093FA0380E291E09093F4039E
:1016F0008093F30310922A041092290482E391E06C
:1017000090932804809327041092300480E2809301
:101710002B0480E18093310482E0809332041092A4
:101720003304809123048C3098F491E0980F9093C7
:1017300023048093240490E0FC01EE0FFF1FE80FC8
:10174000F91FE150FC4F88EB9BE092838183089561
:101750008FEF809324040895789484B5826084BDCB
:1017600084B5816084BD85B5826085BD85B58160A5
:1017700085BD80916E00816080936E001092810023
:1017800080918100826080938100809181008160DE
:10179000809381008091800081608093800080919F
:1017A000B10084608093B1008091B000816080932B
:1017B000B00080917A00846080937A0080917A00F2
:1017C000826080937A0080917A00816080937A00B1
:1017D00080917A00806880937A001092C10062E064
:1017E0008EE00E94C40262E08FE00E94C40262E0C8
:1017F00080E10E94C40261E080E00E94C40261E0D6
:1018000082E00E94C40261E083E00E94C40261E0C1
:1018100084E00E94C40261E085E00E94C40261E0AD
:1018200086E00E94C40261E087E00E94C40261E099
:1018300088E00E94C40261E08CE00E94C40260E083
:101840008AE00E94C40261E08BE00E94C40260E072
:1018500089E00E94C40260E085E10E94C40283E046
:101860008093010161E08DE00E94C40261E081E1AA
:101870000E94C402809124048C3008F051C061E0C1
:1018800081E10E94C40280912404282F30E0F901F4
:10189000EE0FFF1FE20FF31FE150FC4F9081907C91
:1018A0009161908310922504109226042CE0622FFF
:1018B0000E944B14829FB001112430E020E0AB0164
:1018C000420F531FFA01EE0FFF1FE40FF51FE15007
:1018D000FC4F908196FD16C02F5F3F4F2C30310595
:1018E00071F781110FC01092800082E08093810017
:1018F0001092850010928400B19A80916F008260EE
:1019000080936F00E09124048E2F90E0FC01EE0F95
:10191000FF1FE80FF91FE150FC4F80818064808336
:101920001092390310923803109237031092360345
:101930000E947F0389E091E0909335038093340304
:101940008AE091E0909333038093320310922C0449
:1019500080913204823018F098E090932C048093A8
:101960002F0462E370E080E090E00E942503609124
:10197000330487E294E00E94440468EE73E080E060
:1019800090E00E94250360E387E294E00E94A405B2
:10199000CBE4D6E4CE010197F1F760E387E294E06F
:1019A0000E94A4052197F1F760E387E294E00E948A
:1019B000A40583E592E00197F1F760E287E294E005
:1019C0000E94A40560912C04606240E087E294E0EC
:1019D0000E94BD0584E080932D0440E06CE087E226
:1019E00094E00E94BD050E940806C2E0C0932E0448
:1019F00040E066E087E294E00E94BD0540E062E0DE
:101A000087E294E00E94BD058BE39FE10197F1F727
:101A100088E08093330460E087E294E00E9444040D
:101A200060E080E00E94D40569E471E087E294E020
:101A30000E94CE0761E080E00E94D40569E571E074
:101A400087E294E00E94CE0768EC70E080E090E0CE
:101A50000E9425030E940806E0916603F091670347
:101A6000C083E0916203F09163031082E09164030C
:101A7000F09165038FEC808310926E03E0916A030E
:101A8000F0916B0386E08083E0916803F091690335
:101A9000808180618083E0916803F0916903808197
:101AA00088608083E0916803F09169038081806899
:101AB0008083E0916803F091690380818F7D80834A
:101AC00088248A94982C540138EA232E30E0332E4F
:101AD00011E070E060E080915403909155030E9402
:101AE0002E05C0915203D0915303BE0190E080E0D7
:101AF0000E942E05CD2B09F482C00E94F2002CE436
:101B000034E0DC010E945D1420E038E240E050E067
:101B10000E94AC11CA01B9010E9424132B013C019F
:101B200040924C0350924D0360924E0370924F03CB
:101B300020E030E040E151E40E94D91320E030E0A1
:101B400040EA50E40E94811220E030E040E052E49C
:101B50000E9410126B017C0120E030E044E152E46D
:101B6000C301B2010E94D413181654F40E9408064F
:101B700010934B0362EB71E086E593E00E94BC0793
:101B8000CCEBD0E040904C0350904D0360904E035E
:101B900070904F0320E030E044E152E4C301B20111
:101BA0000E94D41318160CF087C1809100018D306B
:101BB00009F084C0E0E9F0E0049107FD1EC161E096
:101BC0008DE00E94C402002309F4E7C0023009F04E
:101BD000F8C08091B10087608093B1008CE0809361
:101BE000B30080923F0390924003A0924103B092D1
:101BF000420380917000826080937000FEC060E6B6
:101C000071E086E593E00E94BC078EE00E944102ED
:101C10007C0181E0E114F10409F480E08093510338
:101C20008FE00E944102EC0181E0209709F480E0FE
:101C30008093500380E10E94410220915203309131
:101C40005303EF2849F52F5F3F4F30935303209301
:101C5000520360E871E086E593E00E94BC07609162
:101C6000520370915303072E000C880B990B0E94AE
:101C7000A20686E593E00E94B80760915203709136
:101C8000530390E080E00E942E0568EC70E080E055
:101C900090E00E942503B9CFCD2B61F412161306F4
:101CA0004CF421503109309353032093520369E9D6
:101CB00071E0D1CF892B09F0A8CF1FCF8F3F09F05A
:101CC0009CC08DE080930001E0E9F0E004910F3FBB
:101CD00009F493C0013019F150F0023009F43CC00E
:101CE00007FD8BC061E08DE00E94C4026FCF14BC81
:101CF00015BC84B5826084BD85B5816085BDF10168
:101D00008491E82FF0E0EE0FFF1FEA57FF4F859117
:101D10009491FE01849180933E0300E050CF109295
:101D20008000109281008091810088608093810002
:101D300080918100816080938100F1018491E82F7E
:101D4000F0E0EE0FFF1FEA57FF4F85919491FE01DF
:101D5000849180933D0333CF1092B0001092B10074
:101D60008091B00082608093B0008091B10081606A
:101D70008093B100F1018491E82FF0E0EE0FFF1F96
:101D8000EA57FF4F8591949190933C0380933B03D6
:101D9000FE01849180933A0312CF85B5887F8560D8
:101DA00085BD8CE087BD8092470390924803A09246
:101DB0004903B0924A0380916E00826080936E0066
:101DC0001CC0013009F070C080918100887F836061
:101DD0008093810083ED90E3909389008093880045
:101DE0008092430390924403A0924503B09246032D
:101DF00080916F00826080936F0060E080E00E94BD
:101E0000D4056EEB71E087E294E00E94CE0742E0D9
:101E1000C701B6010E94D40665EC71E087E294E048
:101E20000E94BC0766E081E00E94D40569EC71E085
:101E300087E294E00E94CE0790E080E00E948D004F
:101E40000E94F2002CE434E0DC010E945D1420E0EA
:101E500038E240E050E00E94AC11CA01B9010E9492
:101E6000241360934C0370934D0380934E0390931F
:101E70004F0320E030E040E151E40E94D91320E01C
:101E800030E040EA50E40E94811220E030E040E07F
:101E900052E40E9410126B017C0164EF71E080E05B
:101EA00090E00E9425036ECE023021F00111A5CFF3
:101EB00083ED78CF83ED93CE209154033091550379
:101EC0008091520390915303281739070CF044C0B6
:101ED00020E030E044E152E4C301B2010E947C12F0
:101EE0001816D4F18DE00E9498020E94080660E066
:101EF00080E00E94D4056EEB71E087E294E00E94DE
:101F0000CE0742E0C701B6010E94D40665EC71E03D
:101F100087E294E00E94BC0766E081E00E94D4055D
:101F200065ED71E087E294E00E94CE0784EB90E0DB
:101F30000E948D0080914B03882341F063EE71E095
:101F400086E593E00E94BC0710924B0360E273E0C9
:101F500080E090E00E9425038EE00E944102EC01A7
:101F600081E0209709F480E0809351038FE00E9484
:101F7000410221E0009709F420E020935003609192
:101F8000520370915303CD2B09F01CC16F5F7F4F3B
:101F9000709353036093520390E080E00E942E05FB
:101FA00060E871E086E593E00E94BC07609152030F
:101FB00070915303072E000C880B990B0E94A20608
:101FC00086E593E00E94B80768EC70E080E090E05E
:101FD0000E942503209154033091550380915203B0
:101FE00090915303281739070CF400C161EF71E099
:101FF00086E593E00E94BC070E94080660E080E04E
:102000000E94D4056EEB71E087E294E00E94CE0757
:1020100042E0C701B6010E94D40665EC71E087E298
:1020200094E00E94BC0766E081E00E94D4056AE06B
:1020300072E087E294E00E94CE0790E080E00E9488
:102040008D0062EB71E086E593E00E94BC0710937F
:102050004B0368EE73E080E090E00E9425038091DE
:10206000540390915503181619060CF09EC060E0B9
:102070008BE00E946A0283E090E00197F1F761E053
:102080008BE00E946A0283E290E00197F1F760E042
:102090008BE00E946A0289E00E9421062AE330E078
:1020A00040E050E00E94AC1129013A0160E572E085
:1020B00086E593E00E94BC07C301B2010E94A2061C
:1020C00065E272E086E593E00E94CE0786E593E044
:1020D0000E94B80764E670E080E090E00E9425036B
:1020E000F0E14F165104610471040CF05EC0809160
:1020F0005403909155030197909355038093540393
:1021000070E060E00E942E050E94080660E080E01A
:102110000E94D4056EEB71E087E294E00E94CE0746
:1021200042E0C701B6010E94D40665EC71E087E287
:1021300094E00E94BC0766E081E00E94D40565ED52
:1021400071E087E294E00E94CE0784EB90E00E9469
:102150008D006EE572E086E593E00E94BC076AE3BD
:1021600072E086E593E00E94BC0760915403709191
:102170005503072E000C880B990B0E94A20686E5DA
:1021800093E00E94B80780914B03882341F063EEEF
:1021900071E086E593E00E94BC0710924B0364EF68
:1021A00071E080E090E00E94250380E090E0892BC0
:1021B00009F48FCC0E947501882309F489CC0E9410
:1021C000000082CC892B09F005CF161617060CF0FB
:1021D00001CF61507109709353036093520390E0F3
:1021E00080E00E942E0569E971E0DCCE84EB90E08E
:1021F0000E948D0060E08CE00E946A0283E090E023
:102200000197F1F761E08CE00E946A0283E290E0BE
:102210000197F1F760E08CE00E946A028AE00E9478
:1022200021062AE330E040E050E00E94AC11290191
:102230003A0166E172E086E593E00E94BC07C301C3
:10224000B2010E94A20665E272E086E593E00E9478
:10225000CE0786E593E00E94B80764E670E080E070
:1022600090E00E94250380915403909155032091A2
:10227000520330915303821793070CF0F0CEE0E144
:102280004E165104610471040CF0E9CE019690934E
:1022900055038093540370E060E00E942E0569E2CC
:1022A00072E086E593E00E94BC076AE372E086E58F
:1022B00093E00E94BC076091540370915503072E70
:1022C000000C880B990B0E94A20686E593E00E9401
:1022D000B807209154033091550380915203909197
:1022E0005303281739079CF10E94080660E080E03C
:1022F0000E94D4056EEB71E087E294E00E94CE0765
:1023000042E0C701B6010E94D40665EC71E087E2A5
:1023100094E00E94BC0766E081E00E94D4056AE078
:1023200072E087E294E00E94CE0790E080E00E9495
:102330008D0062EB71E086E593E00E94BC0710938C
:102340004B0364EF71E080E090E00E94250360E9B8
:1023500071E080E090E081CE052E97FB1EF40094A2
:102360000E94C31157FD07D00E94DE1107FC03D065
:102370004EF40C94C31150954095309521953F4FE4
:102380004F4F5F4F089590958095709561957F4F61
:102390008F4F9F4F08950E940012A59F900DB49FEC
:1023A000900DA49F800D911D11240895B7FF0C94EA
:1023B000CB110E94CB11821B930B0895A1E21A2E20
:1023C000AA1BBB1BFD010DC0AA1FBB1FEE1FFF1FD9
:1023D000A217B307E407F50720F0A21BB30BE40B29
:1023E000F50B661F771F881F991F1A9469F7609570
:1023F0007095809590959B01AC01BD01CF0108952A
:10240000A29FB001B39FC001A39F700D811D112435
:10241000911DB29F700D811D1124911D089550587A
:10242000BB27AA270E9427120C949A130E948C1390
:1024300038F00E94931320F039F49F3F19F426F4EA
:102440000C9489130EF4E095E7FB0C948313E92FA9
:102450000E94AB1358F3BA176207730784079507F6
:1024600020F079F4A6F50C94CD130EF4E0950B2E24
:10247000BA2FA02D0B01B90190010C01CA01A001D6
:102480001124FF27591B99F0593F50F4503E68F131
:102490001A16F040A22F232F342F4427585FF3CF72
:1024A000469537952795A795F0405395C9F77EF443
:1024B0001F16BA0B620B730B840BBAF09150A1F08C
:1024C000FF0FBB1F661F771F881FC2F70EC0BA0F12
:1024D000621F731F841F48F4879577956795B7959A
:1024E000F7959E3F08F0B0CF9395880F08F0992795
:1024F000EE0F9795879508950E945F1308F481E089
:1025000008950E9495120C949A130E94931358F008
:102510000E948C1340F029F45F3F29F00C94831340
:1025200051110C94CE130C9489130E94AB1368F3D1
:102530009923B1F3552391F3951B550BBB27AA277C
:1025400062177307840738F09F5F5F4F220F331FB6
:10255000441FAA1FA9F335D00E2E3AF0E0E832D07E
:1025600091505040E695001CCAF72BD0FE2F29D081
:10257000660F771F881FBB1F261737074807AB0753
:10258000B0E809F0BB0B802DBF01FF2793585F4FC8
:102590003AF09E3F510578F00C9483130C94CE13BF
:1025A0005F3FE4F3983ED4F3869577956795B795AA
:1025B000F7959F5FC9F7880F911D9695879597F9B5
:1025C0000895E1E0660F771F881FBB1F621773072E
:1025D0008407BA0720F0621B730B840BBA0BEE1F43
:1025E00088F7E09508950E94B31388F09F5798F0FC
:1025F000B92F9927B751B0F0E1F0660F771F881F08
:10260000991F1AF0BA95C9F714C0B13091F00E9421
:10261000CD13B1E008950C94CD13672F782F882740
:10262000B85F39F0B93FCCF3869577956795B39548
:10263000D9F73EF490958095709561957F4F8F4FB7
:102640009F4F0895E89409C097FB3EF490958095BC
:10265000709561957F4F8F4F9F4F9923A9F0F92F68
:1026600096E9BB279395F695879577956795B795E6
:10267000F111F8CFFAF4BB0F11F460FF1BC06F5FCC
:102680007F4F8F4F9F4F16C0882311F096E911C0DE
:10269000772321F09EE8872F762F05C0662371F0FF
:1026A00096E8862F70E060E02AF09A95660F771F13
:1026B000881FDAF7880F9695879597F90895990FEF
:1026C0000008550FAA0BE0E8FEEF16161706E807FC
:1026D000F907C0F012161306E407F50798F0621B1D
:1026E000730B840B950B39F40A2661F0232B242BF2
:1026F000252B21F408950A2609F4A140A6958FEF11
:10270000811D811D089597F99F6780E870E060E062
:1027100008959FEF80EC089500240A94161617067A
:1027200018060906089500240A94121613061406C2
:1027300005060895092E0394000C11F4882352F025
:10274000BB0F40F4BF2B11F460FF04C06F5F7F4FDD
:102750008F4F9F4F089557FD9058440F551F59F0C4
:102760005F3F71F04795880F97FB991F61F09F3F7E
:1027700079F087950895121613061406551FF2CFA7
:102780004695F1DF08C0161617061806991FF1CFF7
:1027900086957105610508940895E894BB2766271E
:1027A0007727CB0197F908950E945F1308F48FEF04
:1027B00008950E94EC130C949A130E948C1338F025
:1027C0000E94931320F0952311F00C9483130C9422
:1027D000891311240C94CE130E94AB1370F3959FB0
:1027E000C1F3950F50E0551F629FF001729FBB2708
:1027F000F00DB11D639FAA27F00DB11DAA1F649FA4
:102800006627B00DA11D661F829F2227B00DA11D56
:10281000621F739FB00DA11D621F839FA00D611DDC
:10282000221F749F3327A00D611D231F849F600DFD
:10283000211D822F762F6A2F11249F5750409AF026
:10284000F1F088234AF0EE0FFF1FBB1F661F771FB2
:10285000881F91505040A9F79E3F510580F00C947D
:1028600083130C94CE135F3FE4F3983ED4F3869524
:1028700077956795B795F795E7959F5FC1F7FE2B1D
:10288000880F911D9695879597F908950E945F137B
:10289000880B990B0895991B79E004C0991F96172E
:1028A00008F0961B881F7A95C9F780950895EE0F5A
:1028B000FF1F0590F491E02D09940E940012B7FFCC
:1028C0000895821B930B0895F894FFCFFF01000039
:1028D00040001400540000000000AB010B0138015F
:1028E000F801690147015B01000000001504E803DD
:1028F0002B05BE03E103CE03BF03000000001B064F
:102900000B012B0557036E616E00696E66006F76D2
:1029100066000D0A002020205374617274696E678E
:10292000202020200020202020202000536574201B
:102930006D6178696D756D206C696D6974206F6665
:1029400020637573746F6D6572732E004D6178200E
:10295000706572736F6E20696E6372656173656412
:1029600020746F3A004D617820706572736F6E202D
:1029700064656372656173656420746F3A00444FE7
:102980004F52204C4F434B45440054454D503A2044
:102990000020DF4600444F4E275420454E544552F8
:1029A00000594F55204D415920454E544552004441
:1029B0004F4F5220554E4C4F434B45440057616991
:1029C0007420666F7220706572736F6E20746F2052
:1029D0006C6561766500504C45415345205741492F
:1029E0005400456E7472792053656E736F723A208D
:1029F0000020636D004120706572736F6E20656EFC
:102A000074657265640043757272656E74207065DA
:102A100072736F6E20636F756E743A0045786974D7
:102A20002053656E736F723A200041207065727397
:102A30006F6E206C6566742074686520726F6F6DB0
:022A4000000094
:107E0000112484B714BE81FFF0D085E080938100F7
:107E100082E08093C00088E18093C10086E0809377
:107E2000C20080E18093C4008EE0C9D0259A86E02C
:107E300020E33CEF91E0309385002093840096BBD3
:107E4000B09BFECF1D9AA8958150A9F7CC24DD24C4
:107E500088248394B5E0AB2EA1E19A2EF3E0BF2EE7
:107E6000A2D0813461F49FD0082FAFD0023811F036
:107E7000013811F484E001C083E08DD089C08234E0
:107E800011F484E103C0853419F485E0A6D080C0E4
:107E9000853579F488D0E82EFF2485D0082F10E0AE
:107EA000102F00270E291F29000F111F8ED06801E7
:107EB0006FC0863521F484E090D080E0DECF843638
:107EC00009F040C070D06FD0082F6DD080E0C81688
:107ED00080E7D80618F4F601B7BEE895C0E0D1E017
:107EE00062D089930C17E1F7F0E0CF16F0E7DF06D8
:107EF00018F0F601B7BEE89568D007B600FCFDCFD4
:107F0000A601A0E0B1E02C9130E011968C91119780
:107F100090E0982F8827822B932B1296FA010C0160
:107F200087BEE89511244E5F5F4FF1E0A038BF0790
:107F300051F7F601A7BEE89507B600FCFDCF97BE46
:107F4000E89526C08437B1F42ED02DD0F82E2BD052
:107F50003CD0F601EF2C8F010F5F1F4F84911BD097
:107F6000EA94F801C1F70894C11CD11CFA94CF0C13
:107F7000D11C0EC0853739F428D08EE10CD085E9AC
:107F80000AD08FE07ACF813511F488E018D01DD067
:107F900080E101D065CF982F8091C00085FFFCCF94
:107FA0009093C60008958091C00087FFFCCF809118
:107FB000C00084FD01C0A8958091C6000895E0E648
:107FC000F0E098E1908380830895EDDF803219F02E
:107FD00088E0F5DFFFCF84E1DECF1F93182FE3DFCA
:107FE0001150E9F7F2DF1F91089580E0E8DFEE27F6
:047FF000FF270994CA
:027FFE00040479
:00000001FF
